:020000000F28C7
:10000800FE00030EF1000408F2000A08F300831250
:100018007F08F4008A281028F601F701F801A801E2
:10002800A9018301172883169F0183129F010730B6
:100038009900831699010830850083128501ED2007
:10004800831205150130E2207F308312A5002508B0
:10005800AA004630A2000030A300B02001305A2088
:1000680083122308A9002208A8000430A500250847
:10007800A7000F302702031859280A30A5002508C1
:10008800F5002708C3208312A6002608AA0029081D
:10009800A3002808A200B02001308312A50025087B
:1000A800A7070F302702031C412859288312A400F0
:1000B800F330F50075089F056F281F087A281F156B
:1000C8007A289F157A280C30F50075089F047A283D
:1000D800A201A301080024088400043004020318C4
:1000E8006C2800308A00F530040782000A30A0002E
:1000F8000030A100D52083129F149F1881281E0864
:10010800A30083161E088312A20008000130F00025
:100118007008F8070B1DA528051C9C282A03FF3A20
:10012800FF3E81000F307806031DA4280510A32880
:100138002A0881000F307806031DA4280514F80149
:100148000B117408FF0073088A0072088400710E8E
:100158008300FE0E7E0E0900831222082304031971
:1001680008002C308312A0000130A100D5200130F6
:100178008312A2020030031CA303A302B028831237
:10018800A200A101221CCC287508A0002008A10704
:100198000310F50D0310A20C2208031DC628210820
:1001A8000800831220082104031908000130831273
:1001B800A0020030031CA103A102D52883169F14B6
:1001C8008514813083129F000730990083169901A6
:1001D8000800C030F5007508831681058B168B174B
:0A01E80008006128632865286728D5
:02400E00D1FFE0
:00000001FF
