:020000000F28C7
:10000800DE00030E8312A0000408A1000A08A20063
:100018005F08A3006F281028830142288312A900D3
:10002800F330A80028089F0527281F0832281F1525
:1000380032289F1532280C30A80028089F0432283F
:10004800A601A70108002908840004300402031847
:10005800242800308A00AA30040782000A30A4004D
:100068000030A500882083129F149F1839281E0885
:10007800A70083161E088312A600080083169F0196
:1000880083129F0107309900831699010830850073
:1000980083128501A1208312051501309620323084
:1000A8008312AA002A08AD00013012208312270803
:1000B800AC002608AB002B082C04031965282B0874
:1000C80066283230AA002A08AD00C830A4000030E3
:1000D800A500882058280B1D7D28051C77282D0889
:1000E800810005107C282D03FF3AFF3E810005148E
:1000F8000B112308DF0022088A0021088400200E43
:100108008300DE0E5E0E090001308312A402003067
:10011800031CA503A502240A031D8828250A031920
:100128000800882883169F148514813083129F0045
:1001380007309900831699010800C0308312A40083
:100148002408831681058B168B17080019281B288D
:040158001D281F2817
:02400E00D131AE
:00000001FF
