:020000000F28C7
:10000800FE00030EF6000408F7000A08F800831241
:100018007F08F9007D281028F001F101F201F301B1
:10002800F4018301172883169F0183129F0107306B
:100038009900831699010830850083128501E02014
:10004800831205150130D5207F308312A6002608BB
:10005800A7001430A2000030A300B52001304D20C5
:1000680083122308F1002208F0000530A6002608B4
:10007800A7000530A4000030A500A220FA308312A2
:10008800A6002608A7000530A4000030A500A2207D
:100098004C288312A500F330A40024089F05622889
:1000A8001F086D281F156D289F156D280C30A4009A
:1000B80024089F046D28A201A301080025088400D4
:1000C8000430040203185F2800308A00E93004076E
:1000D80082000A30A0000030A100C82083129F14BB
:1000E8009F1874281E08A30083161E088312A200F6
:1000F80008000130F5007508F4070B1D9728051C4A
:100108008E282703FF3AFF3E81007403031D9628BB
:10011800051095282708810005307406031D9628C8
:100128000514F4010B117908FF0078088A00770894
:100138008400760E8300FE0E7E0E090083122408CA
:10014800250403190800E8308312A2000330A30035
:10015800B52001308312A4020030031CA503A502B8
:10016800A228831222082304031908007D30831271
:10017800A0000030A100C82001308312A202003084
:10018800031CA303A302B528831220082104031922
:10019800080001308312A0020030031CA103A10251
:1001A800C82883169F148514813083129F00073056
:1001B8009900831699010800C0308312A000200816
:1001C800831681058B168B17080054285628582843
:0201D8005A28A3
:02400E00D1FFE0
:00000001FF
