:020000000F28C7
:10000800FE00030EF0000408F1000A08F200831253
:100018007F08F300722810288301122883169F0195
:1000280083129F01073099008316990108308500D3
:1000380083128501A32083120515013098203230E0
:100048008312A3002308F9000130422083122108FB
:10005800F8002008F7000511E830F4000330F50037
:100068008B2083120515E830F4000330F5008B204F
:1000780001308312A3002308F90728288312A2005D
:10008800F330F60076089F0557281F0862281F15C9
:1000980062289F1562280C30F60076089F046228B3
:1000A800A001A101080022088400043004020318FA
:1000B800542800308A00AB30040782000A30F4006C
:1000C8000030F5008B2083129F149F1869281E08A2
:1000D800A10083161E088312A00008000B1D8028AB
:1000E800051C7A287908810005107F287903FF3AD2
:1000F800FF3E810005140B117308FF0072088A0087
:1001080071088400700E8300FE0E7E0E0900013017
:10011800F4020030031CF503F502740A031D8B2852
:10012800750A031908008B2883169F1485148130DB
:1001380083129F0007309900831699010800C03088
:10014800F4007408831681058B168B17080049285C
:060158004B284D284F2842
:02400E00D5FFDC
:00000001FF
