:020000000F28C7
:10000800FE00030EF1000408F2000A08F300831250
:100018007F08F400D3281028F601F701F8018312AD
:10002800AB01AC01AD018301192883169F0183122E
:100038009F010730990083169901083085008312C3
:100048008501F430A2000130A3000A213521831272
:10005800051501302A217F308312A9002908AD0037
:100068001430A2000030A3000A210130A32083121B
:100078002308AC002208AB001A308312A900290813
:10008800AA0032302A02031865282A08A90029087C
:10009800AD009630A0000030A1002C08A3002B086A
:1000A800A200662083122108A8002008A700F720D4
:1000B80002308312A9002908AA0732302A02031C39
:1000C800492865288312A501A601200821040319DF
:1000D8009E28A401A40AA11B7D2801300310A00DAD
:1000E800A10DFF3E031D72280130F5007508A40715
:1000F8006F2801300310A50DA60DFF3E031D7E28B5
:1001080021082302031D8A2820082202031C9328A1
:100118002008A2022108031CA303A302251401300E
:100128000310A10CA00CFF3E031D94280130A4026B
:10013800031D7D282608A1002508A00008008312B9
:10014800A400F330F50075089F05B8281F08C328D8
:100158001F15C3289F15C3280C30F50075089F0488
:10016800C328A201A3010800240884000430040263
:100178000318B52801308A003D30040782000A3090
:10018800A0000030A1001D2183129F149F18CA28C7
:100198001E08A30083161E088312A200080001305F
:1001A800F0007008F8070B1DEC28051CE2282D0844
:1001B80081007803031DEB280510EA282D03FF3A78
:1001C800FF3E81007803031DEB280514F8010B118D
:1001D8007408FF0073088A0072088400710E830097
:1001E800FE0E7E0E09008312270828040319080052
:1001F800E8308312A2000330A3000A2101308312E1
:10020800A7020030031CA803A802F72883122208BB
:100218002304031908007D308312A0000030A100D8
:100228001D2101308312A2020030031CA303A30284
:100238000A298312200821040319080001308312B7
:10024800A0020030031CA103A1021D2983169F14DC
:100258008514813083129F00073099008316990115
:100268000800C030F5007508831681058B168B17BA
:0A0278000800AA28AC28AE28B02820
:02400E00D5FFDC
:00000001FF
