:020000000F28C7
:10000800FE00030EF1000408F2000A08F300831250
:100018007F08F4008D281028F601F701F801830104
:10002800152883169F0183129F01073099008316B4
:100038009901083085008312850112218312051564
:100048000130072150308312A8002808AD00013084
:100058005D2083122308AC002208AB000830A800FA
:100068002808AA0015302A0203185C280A30A800BC
:100078002808F5002A08E8208312A9002908AD00FD
:100088002C08A1002B08A0000A30A2000030A30011
:10009800B32083122108A7002008A600D52001302C
:1000A8008312A8002808AA0715302A02031C3A2838
:1000B8005C288312A400F330F50075089F057228A8
:1000C8001F087D281F157D289F157D280C30F500F9
:1000D80075089F047D28A201A30108002408840054
:1000E8000430040203186F2801308A001A3004070C
:1000F80082000A30A0000030A100FA2083129F1469
:100108009F1884281E08A30083161E088312A200C5
:1001180008000130F0007008F8070B1DA828051C1E
:100128009D282D0881000A307806031DA728051090
:10013800A6282D03FF3AFF3E81000A307806031DEA
:10014800A7280514F8010B117408FF0073088A002A
:1001580072088400710E8300FE0E7E0E0900831261
:10016800A401A501201CBE282208A4070318A50A7B
:100178002308A50701300310A20DA30DFF3E031DA0
:10018800BF2801300310A10CA00CFF3E031DC62898
:1001980020082104031DB6282508A1002408A00072
:1001A8000800831226082704031908002C3083123C
:1001B800A0000130A100FA2001308312A60200300D
:1001C800031CA703A702D5288312A200A101221CA1
:1001D800F1287508A0002008A1070310F50D0310E9
:1001E800A20C2208031DEB2821080800831220080E
:1001F80021040319080001308312A0020030031CF7
:10020800A103A102FA2883169F1485148130831252
:100218009F0007309900831699010800C030F50047
:100228007508831681058B168B17080064286628C5
:0402380068286A28A0
:02400E00D1FFE0
:00000001FF
